{
  "contractName": "ClaimProxy",
  "abi": [
    {
      "constant": true,
      "inputs": [],
      "name": "identityAddress",
      "outputs": [
        {
          "name": "",
          "type": "address"
        }
      ],
      "payable": false,
      "stateMutability": "view",
      "type": "function"
    },
    {
      "inputs": [],
      "payable": false,
      "stateMutability": "nonpayable",
      "type": "constructor"
    },
    {
      "anonymous": false,
      "inputs": [
        {
          "indexed": false,
          "name": "data",
          "type": "bytes"
        }
      ],
      "name": "Log",
      "type": "event"
    },
    {
      "anonymous": false,
      "inputs": [
        {
          "indexed": true,
          "name": "data",
          "type": "bytes32"
        }
      ],
      "name": "Log",
      "type": "event"
    },
    {
      "anonymous": false,
      "inputs": [
        {
          "indexed": true,
          "name": "claimRequestId",
          "type": "uint256"
        },
        {
          "indexed": true,
          "name": "topic",
          "type": "uint256"
        },
        {
          "indexed": false,
          "name": "scheme",
          "type": "uint256"
        },
        {
          "indexed": true,
          "name": "issuer",
          "type": "address"
        },
        {
          "indexed": false,
          "name": "signature",
          "type": "bytes"
        },
        {
          "indexed": false,
          "name": "data",
          "type": "bytes"
        },
        {
          "indexed": false,
          "name": "uri",
          "type": "string"
        }
      ],
      "name": "ClaimRequested",
      "type": "event"
    },
    {
      "anonymous": false,
      "inputs": [
        {
          "indexed": true,
          "name": "claimId",
          "type": "bytes32"
        },
        {
          "indexed": true,
          "name": "topic",
          "type": "uint256"
        },
        {
          "indexed": false,
          "name": "scheme",
          "type": "uint256"
        },
        {
          "indexed": true,
          "name": "issuer",
          "type": "address"
        },
        {
          "indexed": false,
          "name": "signature",
          "type": "bytes"
        },
        {
          "indexed": false,
          "name": "data",
          "type": "bytes"
        },
        {
          "indexed": false,
          "name": "uri",
          "type": "string"
        }
      ],
      "name": "ClaimAdded",
      "type": "event"
    },
    {
      "constant": true,
      "inputs": [
        {
          "name": "_claimId",
          "type": "bytes32"
        }
      ],
      "name": "getClaim",
      "outputs": [
        {
          "name": "topic",
          "type": "uint256"
        },
        {
          "name": "scheme",
          "type": "uint256"
        },
        {
          "name": "issuer",
          "type": "address"
        },
        {
          "name": "signature",
          "type": "bytes"
        },
        {
          "name": "data",
          "type": "bytes"
        },
        {
          "name": "uri",
          "type": "string"
        }
      ],
      "payable": false,
      "stateMutability": "view",
      "type": "function"
    },
    {
      "constant": true,
      "inputs": [
        {
          "name": "_topic",
          "type": "uint256"
        }
      ],
      "name": "getClaimIdsByTopic",
      "outputs": [
        {
          "name": "claimIds",
          "type": "bytes32[]"
        }
      ],
      "payable": false,
      "stateMutability": "view",
      "type": "function"
    },
    {
      "constant": false,
      "inputs": [
        {
          "name": "_topic",
          "type": "uint256"
        },
        {
          "name": "_scheme",
          "type": "uint256"
        },
        {
          "name": "_issuer",
          "type": "address"
        },
        {
          "name": "_signature",
          "type": "bytes"
        },
        {
          "name": "_data",
          "type": "bytes"
        },
        {
          "name": "_uri",
          "type": "string"
        }
      ],
      "name": "addClaim",
      "outputs": [
        {
          "name": "claimRequestId",
          "type": "uint256"
        }
      ],
      "payable": false,
      "stateMutability": "nonpayable",
      "type": "function"
    }
  ],
  "bytecode": "0x6080604052600060035534801561001557600080fd5b506001336100216100c0565b808381526020018273ffffffffffffffffffffffffffffffffffffffff1673ffffffffffffffffffffffffffffffffffffffff16815260200192505050604051809103906000f08015801561007a573d6000803e3d6000fd5b50600460006101000a81548173ffffffffffffffffffffffffffffffffffffffff021916908373ffffffffffffffffffffffffffffffffffffffff1602179055506100d0565b60405161125f806113b983390190565b6112da806100df6000396000f300608060405260043610610062576000357c0100000000000000000000000000000000000000000000000000000000900463ffffffff16806380e9e9e114610067578063b1a34e0d146100e9578063bf45767a14610226578063c9100bcb1461027d575b600080fd5b34801561007357600080fd5b5061009260048036038101908080359060200190929190505050610440565b6040518080602001828103825283818151815260200191508051906020019060200280838360005b838110156100d55780820151818401526020810190506100ba565b505050509050019250505060405180910390f35b3480156100f557600080fd5b506102106004803603810190808035906020019092919080359060200190929190803573ffffffffffffffffffffffffffffffffffffffff169060200190929190803590602001908201803590602001908080601f0160208091040260200160405190810160405280939291908181526020018383808284378201915050505050509192919290803590602001908201803590602001908080601f0160208091040260200160405190810160405280939291908181526020018383808284378201915050505050509192919290803590602001908201803590602001908080601f01602080910402602001604051908101604052809392919081815260200183838082843782019150505050505091929192905050506104af565b6040518082815260200191505060405180910390f35b34801561023257600080fd5b5061023b610b29565b604051808273ffffffffffffffffffffffffffffffffffffffff1673ffffffffffffffffffffffffffffffffffffffff16815260200191505060405180910390f35b34801561028957600080fd5b506102ac6004803603810190808035600019169060200190929190505050610b4f565b604051808781526020018681526020018573ffffffffffffffffffffffffffffffffffffffff1673ffffffffffffffffffffffffffffffffffffffff168152602001806020018060200180602001848103845287818151815260200191508051906020019080838360005b83811015610332578082015181840152602081019050610317565b50505050905090810190601f16801561035f5780820380516001836020036101000a031916815260200191505b50848103835286818151815260200191508051906020019080838360005b8381101561039857808201518184015260208101905061037d565b50505050905090810190601f1680156103c55780820380516001836020036101000a031916815260200191505b50848103825285818151815260200191508051906020019080838360005b838110156103fe5780820151818401526020810190506103e3565b50505050905090810190601f16801561042b5780820380516001836020036101000a031916815260200191505b50995050505050505050505060405180910390f35b6060600260008381526020019081526020016000208054806020026020016040519081016040528092919081815260200182805480156104a357602002820191906000526020600020905b8154600019168152602001906001019080831161048b575b50505050509050919050565b60008060006104c2898989898989610d9c565b91508673ffffffffffffffffffffffffffffffffffffffff1689837fe6b6db97dedfb44cbced367387e40b3f92dbee1b1be87f9367f7b673532b0d698b8a8a8a60405180858152602001806020018060200180602001848103845287818151815260200191508051906020019080838360005b83811015610550578082015181840152602081019050610535565b50505050905090810190601f16801561057d5780820380516001836020036101000a031916815260200191505b50848103835286818151815260200191508051906020019080838360005b838110156105b657808201518184015260208101905061059b565b50505050905090810190601f1680156105e35780820380516001836020036101000a031916815260200191505b50848103825285818151815260200191508051906020019080838360005b8381101561061c578082015181840152602081019050610601565b50505050905090810190601f1680156106495780820380516001836020036101000a031916815260200191505b5097505050505050505060405180910390a48689604051808373ffffffffffffffffffffffffffffffffffffffff1673ffffffffffffffffffffffffffffffffffffffff166c010000000000000000000000000281526014018281526020019250505060405180910390209050600460009054906101000a900473ffffffffffffffffffffffffffffffffffffffff1673ffffffffffffffffffffffffffffffffffffffff163373ffffffffffffffffffffffffffffffffffffffff16148061083b5750600460009054906101000a900473ffffffffffffffffffffffffffffffffffffffff1673ffffffffffffffffffffffffffffffffffffffff1663d202158d33604051808273ffffffffffffffffffffffffffffffffffffffff1673ffffffffffffffffffffffffffffffffffffffff166c01000000000000000000000000028152601401915050604051809103902060016040518363ffffffff167c010000000000000000000000000000000000000000000000000000000002815260040180836000191660001916815260200182815260200192505050602060405180830381600087803b1580156107ff57600080fd5b505af1158015610813573d6000803e3d6000fd5b505050506040513d602081101561082957600080fd5b81019080805190602001909291905050505b15610b1957886000808360001916600019168152602001908152602001600020600001819055508760008083600019166000191681526020019081526020016000206001018190555086600080836000191660001916815260200190815260200160002060020160006101000a81548173ffffffffffffffffffffffffffffffffffffffff021916908373ffffffffffffffffffffffffffffffffffffffff1602179055508560008083600019166000191681526020019081526020016000206003019080519060200190610911929190611189565b508460008083600019166000191681526020019081526020016000206004019080519060200190610943929190611189565b508360008083600019166000191681526020019081526020016000206005019080519060200190610975929190611209565b508673ffffffffffffffffffffffffffffffffffffffff168982600019167f46149b18aa084502c3f12bc75e19eda8bda8d102b82cce8474677a6d0d5f43c58b8a8a8a60405180858152602001806020018060200180602001848103845287818151815260200191508051906020019080838360005b83811015610a065780820151818401526020810190506109eb565b50505050905090810190601f168015610a335780820380516001836020036101000a031916815260200191505b50848103835286818151815260200191508051906020019080838360005b83811015610a6c578082015181840152602081019050610a51565b50505050905090810190601f168015610a995780820380516001836020036101000a031916815260200191505b50848103825285818151815260200191508051906020019080838360005b83811015610ad2578082015181840152602081019050610ab7565b50505050905090810190601f168015610aff5780820380516001836020036101000a031916815260200191505b5097505050505050505060405180910390a4819250610b1d565b8192505b50509695505050505050565b600460009054906101000a900473ffffffffffffffffffffffffffffffffffffffff1681565b60008060006060806060600080600089600019166000191681526020019081526020016000209050806000015481600101548260020160009054906101000a900473ffffffffffffffffffffffffffffffffffffffff16836003018460040185600501828054600181600116156101000203166002900480601f016020809104026020016040519081016040528092919081815260200182805460018160011615610100020316600290048015610c475780601f10610c1c57610100808354040283529160200191610c47565b820191906000526020600020905b815481529060010190602001808311610c2a57829003601f168201915b50505050509250818054600181600116156101000203166002900480601f016020809104026020016040519081016040528092919081815260200182805460018160011615610100020316600290048015610ce35780601f10610cb857610100808354040283529160200191610ce3565b820191906000526020600020905b815481529060010190602001808311610cc657829003601f168201915b50505050509150808054600181600116156101000203166002900480601f016020809104026020016040519081016040528092919081815260200182805460018160011615610100020316600290048015610d7f5780601f10610d5457610100808354040283529160200191610d7f565b820191906000526020600020905b815481529060010190602001808311610d6257829003601f168201915b505050505090509650965096509650965096505091939550919395565b60006060878787878787604051602401808781526020018681526020018573ffffffffffffffffffffffffffffffffffffffff1673ffffffffffffffffffffffffffffffffffffffff168152602001806020018060200180602001848103845287818151815260200191508051906020019080838360005b83811015610e2f578082015181840152602081019050610e14565b50505050905090810190601f168015610e5c5780820380516001836020036101000a031916815260200191505b50848103835286818151815260200191508051906020019080838360005b83811015610e95578082015181840152602081019050610e7a565b50505050905090810190601f168015610ec25780820380516001836020036101000a031916815260200191505b50848103825285818151815260200191508051906020019080838360005b83811015610efb578082015181840152602081019050610ee0565b50505050905090810190601f168015610f285780820380516001836020036101000a031916815260200191505b5099505050505050505050506040516020818303038152906040527fb1a34e0d000000000000000000000000000000000000000000000000000000007bffffffffffffffffffffffffffffffffffffffffffffffffffffffff19166020820180517bffffffffffffffffffffffffffffffffffffffffffffffffffffffff83818316178352505050509050600460009054906101000a900473ffffffffffffffffffffffffffffffffffffffff1673ffffffffffffffffffffffffffffffffffffffff1663769c8bc0306000846040518463ffffffff167c0100000000000000000000000000000000000000000000000000000000028152600401808473ffffffffffffffffffffffffffffffffffffffff1673ffffffffffffffffffffffffffffffffffffffff16815260200183815260200180602001828103825283818151815260200191508051906020019080838360005b8381101561109857808201518184015260208101905061107d565b50505050905090810190601f1680156110c55780820380516001836020036101000a031916815260200191505b50945050505050602060405180830381600087803b1580156110e657600080fd5b505af11580156110fa573d6000803e3d6000fd5b505050506040513d602081101561111057600080fd5b8101908080519060200190929190505050915061117e565b83811015611143578082015181840152602081019050611128565b50505050905090810190601f1680156111705780820380516001836020036101000a031916815260200191505b509250505060405180910390a15b509695505050505050565b828054600181600116156101000203166002900490600052602060002090601f016020900481019282601f106111ca57805160ff19168380011785556111f8565b828001600101855582156111f8579182015b828111156111f75782518255916020019190600101906111dc565b5b5090506112059190611289565b5090565b828054600181600116156101000203166002900490600052602060002090601f016020900481019282601f1061124a57805160ff1916838001178555611278565b82800160010185558215611278579182015b8281111561127757825182559160200191906001019061125c565b5b5090506112859190611289565b5090565b6112ab91905b808211156112a757600081600090555060010161128f565b5090565b905600a165627a7a72305820626cd86e62ae6337eb1e12db9846fde4731ac533f117abf0b836f6137c58130200296080604052600060055534801561001557600080fd5b5060405160408061125f8339810180604052810190808051906020019092919080519060200190929190505050600081604051808273ffffffffffffffffffffffffffffffffffffffff1673ffffffffffffffffffffffffffffffffffffffff166c01000000000000000000000000028152601401915050604051809103902090508060016000836000191660001916815260200190815260200160002060020181600019169055506001600082600019166000191681526020019081526020016000206000016001908060018154018082558091505090600182039060005260206000200160009091929091909150555060018060008360001916600019168152602001908152602001600020600101819055508260008190555060018082600019167f480000bb1edad8ca1470381cc334b1917fbd51c6531f3a623ea8e0ec7e38a6e960405160405180910390a45050506110e8806101776000396000f30060806040526004361061008e576000357c0100000000000000000000000000000000000000000000000000000000900463ffffffff16806312aaac70146100935780631d3812401461012f5780632c159a1a1461018c578063747442d3146101e3578063769c8bc0146102345780639010f726146102db578063b61d27f61461035d578063d202158d14610404575b600080fd5b34801561009f57600080fd5b506100c26004803603810190808035600019169060200190929190505050610457565b60405180806020018481526020018360001916600019168152602001828103825285818151815260200191508051906020019060200280838360005b838110156101195780820151818401526020810190506100fe565b5050505090500194505050505060405180910390f35b34801561013b57600080fd5b5061017260048036038101908080356000191690602001909291908035906020019092919080359060200190929190505050610517565b604051808215151515815260200191505060405180910390f35b34801561019857600080fd5b506101a16106ab565b604051808273ffffffffffffffffffffffffffffffffffffffff1673ffffffffffffffffffffffffffffffffffffffff16815260200191505060405180910390f35b3480156101ef57600080fd5b5061021a600480360381019080803590602001909291908035151590602001909291905050506106d1565b604051808215151515815260200191505060405180910390f35b34801561024057600080fd5b506102c5600480360381019080803573ffffffffffffffffffffffffffffffffffffffff16906020019092919080359060200190929190803590602001908201803590602001908080601f0160208091040260200160405190810160405280939291908181526020018383808284378201915050505050509192919290505050610cc2565b6040518082815260200191505060405180910390f35b3480156102e757600080fd5b5061030660048036038101908080359060200190929190505050610dd5565b6040518080602001828103825283818151815260200191508051906020019060200280838360005b8381101561034957808201518184015260208101905061032e565b505050509050019250505060405180910390f35b34801561036957600080fd5b506103ee600480360381019080803573ffffffffffffffffffffffffffffffffffffffff16906020019092919080359060200190929190803590602001908201803590602001908080601f0160208091040260200160405190810160405280939291908181526020018383808284378201915050505050509192919290505050610e44565b6040518082815260200191505060405180910390f35b34801561041057600080fd5b5061043d600480360381019080803560001916906020019092919080359060200190929190505050610f86565b604051808215151515815260200191505060405180910390f35b606060008060016000856000191660001916815260200190815260200160002060000160016000866000191660001916815260200190815260200160002060010154600160008760001916600019168152602001908152602001600020600201548280548060200260200160405190810160405280929190818152602001828054801561050357602002820191906000526020600020905b8154815260200190600101908083116104ef575b505050505092509250925092509193909250565b60008060010284600019161415151561052f57600080fd5b6004831115151561053f57600080fd5b3073ffffffffffffffffffffffffffffffffffffffff163373ffffffffffffffffffffffffffffffffffffffff161415156105db576105cf33604051808273ffffffffffffffffffffffffffffffffffffffff1673ffffffffffffffffffffffffffffffffffffffff166c0100000000000000000000000002815260140191505060405180910390206001610f86565b15156105da57600080fd5b5b8360016000866000191660001916815260200190815260200160002060020181600019169055506001600085600019166000191681526020019081526020016000206000018390806001815401808255809150509060018203906000526020600020016000909192909190915055508160016000866000191660001916815260200190815260200160002060010181905550818385600019167f480000bb1edad8ca1470381cc334b1917fbd51c6531f3a623ea8e0ec7e38a6e960405160405180910390a4600190509392505050565b600460009054906101000a900473ffffffffffffffffffffffffffffffffffffffff1681565b60008060009050837fb3932da477fe5d6c8ff2eafef050c0f3a1af18fc07121001482600f36f3715d884604051808215151515815260200191505060405180910390a2600015156003600086815260200190815260200160002060040160009054906101000a900460ff16151514151561074a57600080fd5b8215610b49573073ffffffffffffffffffffffffffffffffffffffff166003600086815260200190815260200160002060000160009054906101000a900473ffffffffffffffffffffffffffffffffffffffff1673ffffffffffffffffffffffffffffffffffffffff1614156109975761081533604051808273ffffffffffffffffffffffffffffffffffffffff1673ffffffffffffffffffffffffffffffffffffffff166c0100000000000000000000000002815260140191505060405180910390206001610f86565b151561082057600080fd5b6003600085815260200190815260200160002060030160008154809291906001019190505550600054600360008681526020019081526020016000206003015410151561098e576003600085815260200190815260200160002060000160009054906101000a900473ffffffffffffffffffffffffffffffffffffffff1673ffffffffffffffffffffffffffffffffffffffff1660036000868152602001908152602001600020600201546003600087815260200190815260200160002060010160405180828054600181600116156101000203166002900480156109465780601f1061091b57610100808354040283529160200191610946565b820191906000526020600020905b81548152906001019060200180831161092957829003601f168201915b505091505060006040518083038185875af192505050905060016003600086815260200190815260200160002060040160006101000a81548160ff0219169083151502179055505b60019150610cbb565b6109f233604051808273ffffffffffffffffffffffffffffffffffffffff1673ffffffffffffffffffffffffffffffffffffffff166c0100000000000000000000000002815260140191505060405180910390206002610f86565b15610b445760036000858152602001908152602001600020600301600081548092919060010191905055506003600085815260200190815260200160002060000160009054906101000a900473ffffffffffffffffffffffffffffffffffffffff1673ffffffffffffffffffffffffffffffffffffffff166003600086815260200190815260200160002060020154600360008781526020019081526020016000206001016040518082805460018160011615610100020316600290048015610afc5780601f10610ad157610100808354040283529160200191610afc565b820191906000526020600020905b815481529060010190602001808311610adf57829003601f168201915b505091505060006040518083038185875af192505050905060016003600086815260200190815260200160002060040160006101000a81548160ff0219169083151502179055505b610b7d565b6000905060016003600086815260200190815260200160002060040160006101000a81548160ff0219169083151502179055505b8015610cb75760036000858152602001908152602001600020600201546003600086815260200190815260200160002060000160009054906101000a900473ffffffffffffffffffffffffffffffffffffffff1673ffffffffffffffffffffffffffffffffffffffff16857f1f920dbda597d7bf95035464170fa58d0a4b57f13a1c315ace6793b9f63688b8600360008981526020019081526020016000206001016040518080602001828103825283818154600181600116156101000203166002900481526020019150805460018160011615610100020316600290048015610ca85780601f10610c7d57610100808354040283529160200191610ca8565b820191906000526020600020905b815481529060010190602001808311610c8b57829003601f168201915b50509250505060405180910390a45b8091505b5092915050565b60008360036000600554815260200190815260200160002060000160006101000a81548173ffffffffffffffffffffffffffffffffffffffff021916908373ffffffffffffffffffffffffffffffffffffffff1602179055508260036000600554815260200190815260200160002060020181905550816003600060055481526020019081526020016000206001019080519060200190610d64929190611017565b50600060036000600554815260200190815260200160002060030181905550600060036000600554815260200190815260200160002060040160006101000a81548160ff02191690831515021790555060056000815480929190600101919050555060016005540390509392505050565b606060026000838152602001908152602001600020805480602002602001604051908101604052809291908181526020018280548015610e3857602002820191906000526020600020905b81546000191681526020019060010190808311610e20575b50505050509050919050565b60008060009050610e56858585610cc2565b9150838573ffffffffffffffffffffffffffffffffffffffff16837f8afcfabcb00e47a53a8fc3e9f23ff47ee1926194bb1350dd007c50b412a6cee8866040518080602001828103825283818151815260200191508051906020019080838360005b83811015610ed3578082015181840152602081019050610eb8565b50505050905090810190601f168015610f005780820380516001836020036101000a031916815260200191505b509250505060405180910390a4610f6833604051808273ffffffffffffffffffffffffffffffffffffffff1673ffffffffffffffffffffffffffffffffffffffff166c0100000000000000000000000002815260140191505060405180910390206001610f86565b15610f7b57610f788260016106d1565b90505b819150509392505050565b600080600090505b6001600085600019166000191681526020019081526020016000206000018054905081101561100b578260016000866000191660001916815260200190815260200160002060000182815481101515610fe357fe5b9060005260206000200154111515610ffe5760019150611010565b8080600101915050610f8e565b600091505b5092915050565b828054600181600116156101000203166002900490600052602060002090601f016020900481019282601f1061105857805160ff1916838001178555611086565b82800160010185558215611086579182015b8281111561108557825182559160200191906001019061106a565b5b5090506110939190611097565b5090565b6110b991905b808211156110b557600081600090555060010161109d565b5090565b905600a165627a7a723058207f686d31f60e62f293c5f0f473f2f57a3882604dd038adbe912b08e4876620610029",
  "source": "pragma solidity ^0.4.24;\n\nimport \"./IdentityProxy.sol\";\nimport \"./ERC735.sol\";\n\n\ncontract ClaimProxy is ERC735 {\n\n  event Log(bytes data);\n  event Log(bytes32 indexed data);\n\n  mapping (bytes32 => Claim) claims;\n  mapping (uint256 => Claim) pendingClaims;\n  mapping (uint256 => bytes32[]) claimIdsByTopic;\n  uint256 private claimRequestId = 0;\n\n  IdentityProxy public identityAddress;\n\n  constructor() {\n    identityAddress = new IdentityProxy(1 , msg.sender);\n  }\n\n  function getClaim(bytes32 _claimId) public constant returns(uint256 topic, uint256 scheme, address issuer, bytes signature, bytes data, string uri) {\n    Claim claim = claims[_claimId];\n    return (claim.topic, claim.scheme, claim.issuer, claim.signature, claim.data, claim.uri);\n  }\n\n  function getClaimIdsByTopic(uint256 _topic) public constant returns(bytes32[] claimIds) {\n    return claimIdsByTopic[_topic];\n  }\n\n  //bytes32 claimId = keccak256(issuer_address, topic);\n  function addPendingClaim(uint256 _topic, uint256 _scheme, address _issuer, bytes _signature, bytes _data, string _uri) internal returns (uint256) {\n\n    bytes memory txData = abi.encodeWithSignature(\"addClaim(uint256,uint256,address,bytes,bytes,string)\", _topic,_scheme, _issuer, _signature, _data, _uri);\n    return identityAddress.addExecution(address(this), 0, txData);\n    emit Log(txData);\n  }\n  /* This SHOULD create a pending claim, which SHOULD to\n  be approved or rejected by n of m approve calls from keys of purpose 1\n  if its self claim, no approve is required.\n  Returns claimRequestId: COULD be send to the approve function, to approve or reject this claim.\n  Triggers if the claim is new Event and approval process exists: ClaimRequested\n  Triggers if the claim is new Event and is added: ClaimAdded\n  Triggers if the claim index existed Event: ClaimChanged  */\n  function addClaim(uint256 _topic, uint256 _scheme, address _issuer, bytes _signature, bytes _data, string _uri) public returns (uint256 claimRequestId) {\n\n    uint256 id = addPendingClaim(_topic, _scheme, _issuer, _signature, _data, _uri);\n    ClaimRequested(id, _topic, _scheme, _issuer, _signature, _data, _uri);\n\n     bytes32 claimId = keccak256(_issuer, _topic);\n    //No approval for self claim, else approval process decide the addition of claims\n    if (msg.sender == address(identityAddress) || (identityAddress.keyHasPurpose(keccak256(msg.sender), 1))) {\n      claims[claimId].topic = _topic;\n      claims[claimId].scheme = _scheme;\n      claims[claimId].issuer = _issuer;\n      claims[claimId].signature = _signature;\n      claims[claimId].data = _data;\n      claims[claimId].uri = _uri;\n      ClaimAdded(claimId, _topic, _scheme, _issuer, _signature, _data, _uri);\n      return id;\n    }\n    return id;\n  }\n  //function changeClaim(bytes32 _claimId, uint256 _topic, uint256 _scheme, address _issuer, bytes _signature, bytes _data, string _uri) returns (bool success);\n  //function removeClaim(bytes32 _claimId) public returns (bool success);\n}\n",
  "sourcePath": "/home/sandeep/ERC725/contracts/ClaimProxy.sol",
  "compiler": {
    "name": "solc",
    "version": "0.4.24+commit.e67f0147.Emscripten.clang"
  },
  "schemaVersion": "2.0.0",
  "updatedAt": "2018-09-12T08:16:55.419Z"
}