{
  "contractName": "IdentityProxy",
  "abi": [
    {
      "constant": true,
      "inputs": [],
      "name": "identity",
      "outputs": [
        {
          "name": "",
          "type": "address"
        }
      ],
      "payable": false,
      "stateMutability": "view",
      "type": "function"
    },
    {
      "inputs": [
        {
          "name": "req",
          "type": "uint256"
        },
        {
          "name": "owner",
          "type": "address"
        }
      ],
      "payable": false,
      "stateMutability": "nonpayable",
      "type": "constructor"
    },
    {
      "anonymous": false,
      "inputs": [
        {
          "indexed": false,
          "name": "",
          "type": "uint256"
        },
        {
          "indexed": false,
          "name": "",
          "type": "string"
        }
      ],
      "name": "ExecutionFailed",
      "type": "event"
    },
    {
      "anonymous": false,
      "inputs": [
        {
          "indexed": true,
          "name": "key",
          "type": "bytes32"
        },
        {
          "indexed": true,
          "name": "purpose",
          "type": "uint256"
        },
        {
          "indexed": true,
          "name": "keyType",
          "type": "uint256"
        }
      ],
      "name": "KeyAdded",
      "type": "event"
    },
    {
      "anonymous": false,
      "inputs": [
        {
          "indexed": true,
          "name": "key",
          "type": "bytes32"
        },
        {
          "indexed": true,
          "name": "purpose",
          "type": "uint256"
        },
        {
          "indexed": true,
          "name": "keyType",
          "type": "uint256"
        }
      ],
      "name": "KeyRemoved",
      "type": "event"
    },
    {
      "anonymous": false,
      "inputs": [
        {
          "indexed": true,
          "name": "executionId",
          "type": "uint256"
        },
        {
          "indexed": true,
          "name": "to",
          "type": "address"
        },
        {
          "indexed": true,
          "name": "value",
          "type": "uint256"
        },
        {
          "indexed": false,
          "name": "data",
          "type": "bytes"
        }
      ],
      "name": "ExecutionRequested",
      "type": "event"
    },
    {
      "anonymous": false,
      "inputs": [
        {
          "indexed": true,
          "name": "executionId",
          "type": "uint256"
        },
        {
          "indexed": true,
          "name": "to",
          "type": "address"
        },
        {
          "indexed": true,
          "name": "value",
          "type": "uint256"
        },
        {
          "indexed": false,
          "name": "data",
          "type": "bytes"
        }
      ],
      "name": "Executed",
      "type": "event"
    },
    {
      "anonymous": false,
      "inputs": [
        {
          "indexed": true,
          "name": "executionId",
          "type": "uint256"
        },
        {
          "indexed": false,
          "name": "approved",
          "type": "bool"
        }
      ],
      "name": "Approved",
      "type": "event"
    },
    {
      "constant": true,
      "inputs": [
        {
          "name": "_key",
          "type": "bytes32"
        }
      ],
      "name": "getKey",
      "outputs": [
        {
          "name": "purposes",
          "type": "uint256[]"
        },
        {
          "name": "keyType",
          "type": "uint256"
        },
        {
          "name": "key",
          "type": "bytes32"
        }
      ],
      "payable": false,
      "stateMutability": "view",
      "type": "function"
    },
    {
      "constant": true,
      "inputs": [
        {
          "name": "_key",
          "type": "bytes32"
        },
        {
          "name": "purpose",
          "type": "uint256"
        }
      ],
      "name": "keyHasPurpose",
      "outputs": [
        {
          "name": "exists",
          "type": "bool"
        }
      ],
      "payable": false,
      "stateMutability": "view",
      "type": "function"
    },
    {
      "constant": true,
      "inputs": [
        {
          "name": "_purpose",
          "type": "uint256"
        }
      ],
      "name": "getKeysByPurpose",
      "outputs": [
        {
          "name": "keys",
          "type": "bytes32[]"
        }
      ],
      "payable": false,
      "stateMutability": "view",
      "type": "function"
    },
    {
      "constant": false,
      "inputs": [
        {
          "name": "_key",
          "type": "bytes32"
        },
        {
          "name": "_purpose",
          "type": "uint256"
        },
        {
          "name": "_keyType",
          "type": "uint256"
        }
      ],
      "name": "addKey",
      "outputs": [
        {
          "name": "success",
          "type": "bool"
        }
      ],
      "payable": false,
      "stateMutability": "nonpayable",
      "type": "function"
    },
    {
      "constant": false,
      "inputs": [
        {
          "name": "_to",
          "type": "address"
        },
        {
          "name": "_value",
          "type": "uint256"
        },
        {
          "name": "_data",
          "type": "bytes"
        }
      ],
      "name": "addExecution",
      "outputs": [
        {
          "name": "",
          "type": "uint256"
        }
      ],
      "payable": false,
      "stateMutability": "nonpayable",
      "type": "function"
    },
    {
      "constant": false,
      "inputs": [
        {
          "name": "_to",
          "type": "address"
        },
        {
          "name": "_value",
          "type": "uint256"
        },
        {
          "name": "_data",
          "type": "bytes"
        }
      ],
      "name": "execute",
      "outputs": [
        {
          "name": "executionId",
          "type": "uint256"
        }
      ],
      "payable": false,
      "stateMutability": "nonpayable",
      "type": "function"
    },
    {
      "constant": false,
      "inputs": [
        {
          "name": "_id",
          "type": "uint256"
        },
        {
          "name": "_approve",
          "type": "bool"
        }
      ],
      "name": "approve",
      "outputs": [
        {
          "name": "success",
          "type": "bool"
        }
      ],
      "payable": false,
      "stateMutability": "nonpayable",
      "type": "function"
    }
  ],
  "bytecode": "0x6080604052600060055534801561001557600080fd5b5060405160408061125f8339810180604052810190808051906020019092919080519060200190929190505050600081604051808273ffffffffffffffffffffffffffffffffffffffff1673ffffffffffffffffffffffffffffffffffffffff166c01000000000000000000000000028152601401915050604051809103902090508060016000836000191660001916815260200190815260200160002060020181600019169055506001600082600019166000191681526020019081526020016000206000016001908060018154018082558091505090600182039060005260206000200160009091929091909150555060018060008360001916600019168152602001908152602001600020600101819055508260008190555060018082600019167f480000bb1edad8ca1470381cc334b1917fbd51c6531f3a623ea8e0ec7e38a6e960405160405180910390a45050506110e8806101776000396000f30060806040526004361061008e576000357c0100000000000000000000000000000000000000000000000000000000900463ffffffff16806312aaac70146100935780631d3812401461012f5780632c159a1a1461018c578063747442d3146101e3578063769c8bc0146102345780639010f726146102db578063b61d27f61461035d578063d202158d14610404575b600080fd5b34801561009f57600080fd5b506100c26004803603810190808035600019169060200190929190505050610457565b60405180806020018481526020018360001916600019168152602001828103825285818151815260200191508051906020019060200280838360005b838110156101195780820151818401526020810190506100fe565b5050505090500194505050505060405180910390f35b34801561013b57600080fd5b5061017260048036038101908080356000191690602001909291908035906020019092919080359060200190929190505050610517565b604051808215151515815260200191505060405180910390f35b34801561019857600080fd5b506101a16106ab565b604051808273ffffffffffffffffffffffffffffffffffffffff1673ffffffffffffffffffffffffffffffffffffffff16815260200191505060405180910390f35b3480156101ef57600080fd5b5061021a600480360381019080803590602001909291908035151590602001909291905050506106d1565b604051808215151515815260200191505060405180910390f35b34801561024057600080fd5b506102c5600480360381019080803573ffffffffffffffffffffffffffffffffffffffff16906020019092919080359060200190929190803590602001908201803590602001908080601f0160208091040260200160405190810160405280939291908181526020018383808284378201915050505050509192919290505050610cc2565b6040518082815260200191505060405180910390f35b3480156102e757600080fd5b5061030660048036038101908080359060200190929190505050610dd5565b6040518080602001828103825283818151815260200191508051906020019060200280838360005b8381101561034957808201518184015260208101905061032e565b505050509050019250505060405180910390f35b34801561036957600080fd5b506103ee600480360381019080803573ffffffffffffffffffffffffffffffffffffffff16906020019092919080359060200190929190803590602001908201803590602001908080601f0160208091040260200160405190810160405280939291908181526020018383808284378201915050505050509192919290505050610e44565b6040518082815260200191505060405180910390f35b34801561041057600080fd5b5061043d600480360381019080803560001916906020019092919080359060200190929190505050610f86565b604051808215151515815260200191505060405180910390f35b606060008060016000856000191660001916815260200190815260200160002060000160016000866000191660001916815260200190815260200160002060010154600160008760001916600019168152602001908152602001600020600201548280548060200260200160405190810160405280929190818152602001828054801561050357602002820191906000526020600020905b8154815260200190600101908083116104ef575b505050505092509250925092509193909250565b60008060010284600019161415151561052f57600080fd5b6004831115151561053f57600080fd5b3073ffffffffffffffffffffffffffffffffffffffff163373ffffffffffffffffffffffffffffffffffffffff161415156105db576105cf33604051808273ffffffffffffffffffffffffffffffffffffffff1673ffffffffffffffffffffffffffffffffffffffff166c0100000000000000000000000002815260140191505060405180910390206001610f86565b15156105da57600080fd5b5b8360016000866000191660001916815260200190815260200160002060020181600019169055506001600085600019166000191681526020019081526020016000206000018390806001815401808255809150509060018203906000526020600020016000909192909190915055508160016000866000191660001916815260200190815260200160002060010181905550818385600019167f480000bb1edad8ca1470381cc334b1917fbd51c6531f3a623ea8e0ec7e38a6e960405160405180910390a4600190509392505050565b600460009054906101000a900473ffffffffffffffffffffffffffffffffffffffff1681565b60008060009050837fb3932da477fe5d6c8ff2eafef050c0f3a1af18fc07121001482600f36f3715d884604051808215151515815260200191505060405180910390a2600015156003600086815260200190815260200160002060040160009054906101000a900460ff16151514151561074a57600080fd5b8215610b49573073ffffffffffffffffffffffffffffffffffffffff166003600086815260200190815260200160002060000160009054906101000a900473ffffffffffffffffffffffffffffffffffffffff1673ffffffffffffffffffffffffffffffffffffffff1614156109975761081533604051808273ffffffffffffffffffffffffffffffffffffffff1673ffffffffffffffffffffffffffffffffffffffff166c0100000000000000000000000002815260140191505060405180910390206001610f86565b151561082057600080fd5b6003600085815260200190815260200160002060030160008154809291906001019190505550600054600360008681526020019081526020016000206003015410151561098e576003600085815260200190815260200160002060000160009054906101000a900473ffffffffffffffffffffffffffffffffffffffff1673ffffffffffffffffffffffffffffffffffffffff1660036000868152602001908152602001600020600201546003600087815260200190815260200160002060010160405180828054600181600116156101000203166002900480156109465780601f1061091b57610100808354040283529160200191610946565b820191906000526020600020905b81548152906001019060200180831161092957829003601f168201915b505091505060006040518083038185875af192505050905060016003600086815260200190815260200160002060040160006101000a81548160ff0219169083151502179055505b60019150610cbb565b6109f233604051808273ffffffffffffffffffffffffffffffffffffffff1673ffffffffffffffffffffffffffffffffffffffff166c0100000000000000000000000002815260140191505060405180910390206002610f86565b15610b445760036000858152602001908152602001600020600301600081548092919060010191905055506003600085815260200190815260200160002060000160009054906101000a900473ffffffffffffffffffffffffffffffffffffffff1673ffffffffffffffffffffffffffffffffffffffff166003600086815260200190815260200160002060020154600360008781526020019081526020016000206001016040518082805460018160011615610100020316600290048015610afc5780601f10610ad157610100808354040283529160200191610afc565b820191906000526020600020905b815481529060010190602001808311610adf57829003601f168201915b505091505060006040518083038185875af192505050905060016003600086815260200190815260200160002060040160006101000a81548160ff0219169083151502179055505b610b7d565b6000905060016003600086815260200190815260200160002060040160006101000a81548160ff0219169083151502179055505b8015610cb75760036000858152602001908152602001600020600201546003600086815260200190815260200160002060000160009054906101000a900473ffffffffffffffffffffffffffffffffffffffff1673ffffffffffffffffffffffffffffffffffffffff16857f1f920dbda597d7bf95035464170fa58d0a4b57f13a1c315ace6793b9f63688b8600360008981526020019081526020016000206001016040518080602001828103825283818154600181600116156101000203166002900481526020019150805460018160011615610100020316600290048015610ca85780601f10610c7d57610100808354040283529160200191610ca8565b820191906000526020600020905b815481529060010190602001808311610c8b57829003601f168201915b50509250505060405180910390a45b8091505b5092915050565b60008360036000600554815260200190815260200160002060000160006101000a81548173ffffffffffffffffffffffffffffffffffffffff021916908373ffffffffffffffffffffffffffffffffffffffff1602179055508260036000600554815260200190815260200160002060020181905550816003600060055481526020019081526020016000206001019080519060200190610d64929190611017565b50600060036000600554815260200190815260200160002060030181905550600060036000600554815260200190815260200160002060040160006101000a81548160ff02191690831515021790555060056000815480929190600101919050555060016005540390509392505050565b606060026000838152602001908152602001600020805480602002602001604051908101604052809291908181526020018280548015610e3857602002820191906000526020600020905b81546000191681526020019060010190808311610e20575b50505050509050919050565b60008060009050610e56858585610cc2565b9150838573ffffffffffffffffffffffffffffffffffffffff16837f8afcfabcb00e47a53a8fc3e9f23ff47ee1926194bb1350dd007c50b412a6cee8866040518080602001828103825283818151815260200191508051906020019080838360005b83811015610ed3578082015181840152602081019050610eb8565b50505050905090810190601f168015610f005780820380516001836020036101000a031916815260200191505b509250505060405180910390a4610f6833604051808273ffffffffffffffffffffffffffffffffffffffff1673ffffffffffffffffffffffffffffffffffffffff166c0100000000000000000000000002815260140191505060405180910390206001610f86565b15610f7b57610f788260016106d1565b90505b819150509392505050565b600080600090505b6001600085600019166000191681526020019081526020016000206000018054905081101561100b578260016000866000191660001916815260200190815260200160002060000182815481101515610fe357fe5b9060005260206000200154111515610ffe5760019150611010565b8080600101915050610f8e565b600091505b5092915050565b828054600181600116156101000203166002900490600052602060002090601f016020900481019282601f1061105857805160ff1916838001178555611086565b82800160010185558215611086579182015b8281111561108557825182559160200191906001019061106a565b5b5090506110939190611097565b5090565b6110b991905b808211156110b557600081600090555060010161109d565b5090565b905600a165627a7a723058207f686d31f60e62f293c5f0f473f2f57a3882604dd038adbe912b08e4876620610029",
  "source": "pragma solidity ^0.4.24;\n\nimport \"./ERC725.sol\";\n\ncontract IdentityProxy is ERC725 {\n\n  //we will move this in ERC725.sol afterwards.\n  uint256 constant MANAGEMENT_KEY = 1;\n  uint256 constant ACTION_KEY = 2;\n  uint256 constant CLAIM_SIGNER_KEY = 3;\n  uint256 constant ENCRYPTION_KEY = 4;\n  uint256 constant MAX_PURPOSE_LENGTH = 4;\n\n  uint256 private multisigRequirement;\n\n  event ExecutionFailed(uint256, string);\n\n\n  struct transaction {\n    address to;\n    bytes data;\n    uint256 value;\n    uint256 requirement;\n    bool executed;\n  }\n\n  mapping(bytes32 => Key) private keys;\n  mapping(uint256 => bytes32[]) keysByPurpose;\n  mapping(uint256 => transaction) transactions;\n  address public identity;\n\n  uint256 private executionId = 0;\n\n\n  constructor(uint req, address owner) {\n    bytes32 key = keccak256(owner);\n    keys[key].key = key;\n    keys[key].purposes.push(MANAGEMENT_KEY);\n    keys[key].keyType = 1;\n    multisigRequirement = req;\n    emit KeyAdded(key, MANAGEMENT_KEY, 1);\n  }\n\n  function getKey(bytes32 _key) public constant returns(uint256[] purposes, uint256 keyType, bytes32 key) {\n    return (keys[_key].purposes, keys[_key].keyType, keys[_key].key);\n  }\n\n  function keyHasPurpose(bytes32 _key, uint256 purpose) constant returns(bool exists) {\n    for (uint256 i = 0 ; i < keys[_key].purposes.length; i++) {\n      if (keys[_key].purposes[i] <= purpose) return true;\n    }\n    return false;\n  }\n\n  function getKeysByPurpose(uint256 _purpose) public constant returns(bytes32[] keys) {\n    return keysByPurpose[_purpose];\n  }\n\n  function addKey(bytes32 _key, uint256 _purpose, uint256 _keyType) public returns (bool success) {\n    require(_key != 0);\n    require(_purpose <= MAX_PURPOSE_LENGTH);\n\n    //Only MANAGEMENT_KEY holder can directly add the key.\n    if (msg.sender != address(this)) {\n      require(keyHasPurpose(keccak256(msg.sender), MANAGEMENT_KEY));\n    }\n\n    keys[_key].key = _key;\n    keys[_key].purposes.push(_purpose);\n    keys[_key].keyType = _keyType;\n\n    KeyAdded(_key, _purpose,_keyType);\n    return true;\n  }\n\n  function addExecution(address _to, uint256 _value, bytes _data) public returns (uint256) {\n    //transactions[executionId].nonce++;\n    transactions[executionId].to = _to;\n    transactions[executionId].value = _value;\n    transactions[executionId].data = _data;\n    transactions[executionId].requirement = 0; //lets assume 1 of 1 multisig right now.\n    transactions[executionId].executed = false;\n    executionId++;\n    return executionId - 1;\n  }\n\n  function execute(address _to, uint256 _value, bytes _data) public returns (uint256 executionId) {\n    //call when execute is successfuly called\n    bool status = false;\n    executionId = addExecution(_to, _value, _data);\n    ExecutionRequested(executionId, _to, _value, _data);\n\n    if (keyHasPurpose(keccak256(msg.sender), MANAGEMENT_KEY)) { // || keyHasPurpose(keccak256(msg.sender), ACTION_KEY)) {\n      status = approve(executionId, true);\n    }\n    return executionId; //return execution id for someone listening to execution requested event.\n  }\n\n  /* Approves an execution or claim addition.\n  This SHOULD require n of m approvals of keys purpose 1, if the _to of\n  the execution is the identity contract itself, to successfull approve an execution.\n  And COULD require n of m approvals of keys purpose 2, if the _to of the execution is another\n  contract, to successfull approve an execution. */\n\n  function approve(uint256 _id, bool _approve) public returns (bool success) {\n\n    bool status = false;\n    emit Approved(_id, _approve); //must be called when approve is successfully called\n    require (transactions[_id].executed == false);\n    if (_approve) {\n      if (transactions[_id].to == address(this)) {  //Action on identity contract\n        require(keyHasPurpose(keccak256(msg.sender), MANAGEMENT_KEY)); //require purpose = 1\n        transactions[_id].requirement++;\n        if (transactions[_id].requirement >= multisigRequirement) {\n          status = transactions[_id].to.call.value(transactions[_id].value)(transactions[_id].data);\n          transactions[_id].executed = true;\n        }\n        return true; //need more approvals.\n        } else if (keyHasPurpose(keccak256(msg.sender), ACTION_KEY)) { //anything else u atleast need ACTION key\n          transactions[_id].requirement++;\n          status = transactions[_id].to.call.value(transactions[_id].value)(transactions[_id].data);\n          transactions[_id].executed = true;\n        }\n      }\n      else //Reject claim addition to this identity\n      {\n        status = false;\n        transactions[_id].executed = true;\n      }\n      if (status) {\n        Executed(_id, transactions[_id].to, transactions[_id].value, transactions[_id].data);\n      }\n      return status;\n    }\n  }\n",
  "sourcePath": "/home/sandeep/ERC725/contracts/IdentityProxy.sol",
  "compiler": {
    "name": "solc",
    "version": "0.4.24+commit.e67f0147.Emscripten.clang"
  },
  "schemaVersion": "2.0.0",
  "updatedAt": "2018-09-12T08:16:55.421Z"
}